:100000000C9462000C948A000C948A000C948A0070
:100010000C948A000C948A000C948A000C948A0038
:100020000C948A000C948A000C948A000C948A0028
:100030000C948A000C948A000C948A000C948A0018
:100040000C9408040C948A000C9478040C945204C8
:100050000C948A000C948A000C948A000C948A00F8
:100060000C948A000C948A000000000023002600F3
:10007000290000000000240027002A0000000000E2
:10008000250028002B0004040404040404040202D4
:100090000202020203030303030301020408102007
:1000A0004080010204081020010204081020000012
:1000B0000008000201000003040700000000000027
:1000C0000000F30411241FBECFEFD8E0DEBFCDBF88
:1000D00011E0A0E0B1E0E4EBF0E102C005900D9288
:1000E000AE34B107D9F722E0AEE4B1E001C01D9211
:1000F000A030B207E1F710E0C2E6D0E004C02197DB
:10010000FE010E945208C136D107C9F70E943B0583
:100110000C9458080C940000833081F028F481304E
:1001200099F08230A9F008958730A9F08830C9F09D
:100130008430B1F4809180008F7D03C08091800075
:100140008F7780938000089584B58F7784BD08955C
:1001500084B58F7DFBCF8091B0008F778093B00006
:1001600008958091B0008F7DF9CF1F93CF93DF93D7
:10017000282F30E0F901E255FF4F8491F901E6564E
:10018000FF4FD491F901EA57FF4FC491CC23A9F056
:10019000162F81110E948C00EC2FF0E0EE0FFF1F54
:1001A000E458FF4FA591B4918FB7F894EC911111D9
:1001B00008C0D095DE23DC938FBFDF91CF911F91D4
:1001C0000895DE2BF8CF3FB7F894809153019091BA
:1001D0005401A0915501B091560126B5A89B05C0C8
:1001E0002F3F19F00196A11DB11D3FBFBA2FA92FB6
:1001F000982F8827BC01CD01620F711D811D911DB3
:1002000042E0660F771F881F991F4A95D1F708951E
:100210008F929F92AF92BF92CF92DF92EF92FF9216
:100220004B015C010E94E3006B017C010E94E30032
:100230006C197D098E099F09683E734081059105FF
:10024000A8F321E0821A9108A108B10888EEC80E2F
:1002500083E0D81EE11CF11C81149104A104B104B7
:1002600029F7FF90EF90DF90CF90BF90AF909F90D5
:100270008F900895AF92BF92CF92DF92EF92FF924C
:100280000F931F93CF93DF936C017B018B01040FBE
:10029000151FEB015E01AE18BF08C017D10759F05A
:1002A0006991D601ED91FC910190F081E02DC6019C
:1002B0000995892B79F7C501DF91CF911F910F9196
:1002C000FF90EF90DF90CF90BF90AF900895FC012A
:1002D000538D448D252F30E0842F90E0821B930BAB
:1002E000541710F0CF96089501970895FC01918D51
:1002F000828D981761F0A28DAE0FBF2FB11D5D9654
:100300008C91928D9F5F9F73928F90E008958FEFF5
:100310009FEF0895FC01918D828D981731F0828DA9
:10032000E80FF11D858D90E008958FEF9FEF089500
:10033000FC01918D228D892F90E0805C9F4F821B64
:1003400091098F739927089587E591E00E9498019C
:1003500021E0892B09F420E0822F089580E090E0CD
:10036000892B29F00E94A40181110C9400000895AA
:10037000FC01A48DA80FB92FB11DA35ABF4F2C911A
:10038000848D90E001968F739927848FA689B78911
:100390002C93A089B1898C91837080648C93938D08
:1003A000848D981306C00288F389E02D80818F7DAB
:1003B00080830895EF92FF920F931F93CF93DF9363
:1003C000EC0181E0888F9B8D8C8D98131AC0E88991
:1003D000F989808185FF15C09FB7F894EE89FF8960
:1003E0006083E889F98980818370806480839FBFFE
:1003F00081E090E0DF91CF911F910F91FF90EF90FE
:100400000895F62E0B8D10E00F5F1F4F0F7311270D
:10041000E02E8C8D8E110CC00FB607FCFACFE88948
:10042000F989808185FFF5CFCE010E94B801F1CF17
:10043000EB8DEC0FFD2FF11DE35AFF4FF0829FB7BC
:10044000F8940B8FEA89FB8980818062CFCFCF93AC
:10045000DF93EC01888D8823B9F0AA89BB89E889EC
:10046000F9898C9185FD03C0808186FD0DC00FB692
:1004700007FCF7CF8C9185FFF2CF808185FFEDCF10
:10048000CE010E94B801E9CFDF91CF9108959F92EC
:10049000AF92BF92CF92DF92EF92FF920F931F9392
:1004A000CF93DF938C01A12CC7E0D0E093E2E92E3B
:1004B000F12CCC24C394D12C60E0F80180810E94FF
:1004C000B500C7010197F1F7F801218130E0F9018A
:1004D000E255FF4F8491F901E656FF4FB490F901C0
:1004E000EA57FF4F94909920A9F081110E948C0047
:1004F000E92DF0E0EE0FFF1FE859FF4FA591B491F1
:10050000EC91BE2239F0C6010C2E01C0880F0A946E
:10051000EAF7A82A61E0F80180810E94B500C701CE
:100520000197F1F7219708F0C7CF8A2DDF91CF917E
:100530001F910F91FF90EF90DF90CF90BF90AF9001
:100540009F9008950F931F93CF93DF938C0160E0EA
:10055000FC0182810E94B50083E290E00197F1F7EF
:10056000C8010E944702C82FD0E0DC2FCC27C80169
:100570000E944702C82B61E0F80182810E94B50009
:1005800060E070E080EC9FE7C2FD10C083E0D6958C
:10059000C7958A95E1F7BE0190E080E00E940707C9
:1005A00020E030E040E85EE30E94BE07DF91CF919B
:1005B0001F910F910895FC0101900020E9F73197F8
:1005C000AF01481B590BBC0187E591E00C943A013F
:1005D0008F929F92AF92BF920F931F93CF93DF930F
:1005E000CDB7DEB7A1970FB6F894DEBF0FBECDBF73
:1005F00019A2423008F44AE08E010F5D1F4F842E8D
:10060000912CB12CA12CA50194010E943008E62F59
:10061000B901CA01EA30F4F4E05DD801EE938D012E
:10062000232B242B252B79F790E080E0109719F0ED
:10063000CD010E94DB02A1960FB6F894DEBF0FBE7B
:10064000CDBFDF91CF911F910F91BF90AF909F9041
:100650008F900895E95CE1CF4F925F926F927F9205
:100660008F929F92AF92BF92CF92DF92EF92FF92C2
:100670000F931F93CF936B017C01742EAC019B01F0
:100680000E942B08882399F082E191E0CF911F917D
:100690000F91FF90EF90DF90CF90BF90AF909F9021
:1006A0008F907F906F905F904F900C94DB0246018B
:1006B0005701E894B7F82FEF3FEF4FE75FE7C50129
:1006C000B4010E942B0881110DC02FEF3FEF4FE7BF
:1006D0005FE7C501B4010E94610618161CF486E1AB
:1006E00091E0D4CF2FEF3FEF4FE75FE4C701B601B2
:1006F0000E94B90718161CF48AE191E0C7CF2FEFCA
:100700003FEF4FE75FECC701B6010E94610687FD2E
:10071000F3CF20E030E0A901C701B6010E946106D5
:1007200010E000E087FF0AC06DE287E591E00E94DB
:10073000DA018C01F7FAF094F7F8F094C0E060E089
:1007400070E080E09FE37C1641F020E030E040E282
:1007500051E40E946606CF5FF6CFA70196010E9482
:10076000F5052B013C010E94D8064B015C014AE0D3
:100770000E94E8027C01E00EF11ECC23C1F1C5010C
:10078000B4010E9407079B01AC01C301B2010E94A2
:10079000F4054B015C016EE287E591E00E94DA010D
:1007A000E80EF91EC15018F120E030E040E251E4BB
:1007B000C501B4010E94BE072B013C010E94D8066E
:1007C0004B01B12CA12C4AE0C501B4010E94E80202
:1007D000E80EF91EC501B4010E9407079B01AC0198
:1007E000C301B2010E94F4054B015C01DBCFC701DC
:1007F000CF911F910F91FF90EF90DF90CF90BF901E
:10080000AF909F908F907F906F905F904F900895E2
:100810001F920F920FB60F9211242F933F938F9335
:100820009F93AF93BF9380914F0190915001A091FE
:100830005101B091520130914E0123E0230F2D3729
:1008400058F50196A11DB11D20934E0180934F01D3
:1008500090935001A0935101B093520180915301A4
:1008600090915401A0915501B09156010196A11D9E
:10087000B11D8093530190935401A0935501B093FF
:100880005601BF91AF919F918F913F912F910F9002
:100890000FBE0F901F90189526E8230F0296A11DFA
:1008A000B11DD2CF1F920F920FB60F9211242F932A
:1008B0003F934F935F936F937F938F939F93AF93E8
:1008C000BF93EF93FF9387E591E00E94B801FF91FA
:1008D000EF91BF91AF919F918F917F916F915F91B8
:1008E0004F913F912F910F900FBE0F901F90189531
:1008F0001F920F920FB60F9211242F938F939F93F5
:10090000EF93FF93E0916701F09168018081E0919E
:100910006D01F0916E0182FD1BC09081809170018C
:100920008F5F8F7320917101821741F0E091700108
:10093000F0E0E95AFE4F958F80937001FF91EF919F
:100940009F918F912F910F900FBE0F901F90189530
:100950008081F4CFCF93DF9390E0FC01E656FF4F08
:1009600024918A579F4FFC0184918823D1F090E015
:10097000880F991FFC01EE58FF4FA591B491FC011F
:10098000E458FF4FC591D49161110EC09FB7F89400
:100990008C91E22FE0958E238C932881E223E883CB
:1009A0009FBFDF91CF9108958FB7F894EC91E22B20
:1009B000EC938FBFF6CFCF93DF93EC01842F688346
:1009C0004A83298361E00E94AA0461E088810E9431
:1009D000AA0460E089810E94AA0461E08A81DF9113
:1009E000CF910C94B500E7E5F1E01382128288EE16
:1009F00093E0A0E0B0E084839583A683B78384E08E
:100A000091E09183808385EC90E09587848784ECE6
:100A100090E09787868780EC90E0918B808B81ECCB
:100A200090E0938B828B82EC90E0958B848B86ECAC
:100A300090E0978B868B118E128E138E148E2BE086
:100A40004CE06DE08DEF91E00E94DB0424E045E096
:100A50006DE08AEF91E00E94DB0426E047E06DE064
:100A600087EF91E00E94DB0428E049E06DE084EF2D
:100A700091E00C94DB04789484B5826084BD84B5E5
:100A8000816084BD85B5826085BD85B5816085BD89
:100A900080916E00816080936E0010928100809141
:100AA00081008260809381008091810081608093C9
:100AB0008100809180008160809380008091B100EE
:100AC00084608093B1008091B00081608093B00019
:100AD00080917A00846080937A0080917A008260AD
:100AE00080937A0080917A00816080937A0080916F
:100AF0007A00806880937A001092C100E0916701CB
:100B0000F091680182E08083E0916301F0916401DB
:100B10001082E0916501F09166018FEC8083109264
:100B20006F01E0916B01F0916C0186E08083E091B0
:100B30006901F0916A01808180618083E09169019F
:100B4000F0916A01808188608083E0916901F09171
:100B50006A01808180688083E0916901F0916A0177
:100B600080818F7D808364EF71E080E090E00E945F
:100B70000801C0E0D0E08EE191E00E94DB028DEF41
:100B800091E00E94A20242E00E942C038EE291E0DA
:100B90000E94DB0281E391E00E94DB0288E391E0A6
:100BA0000E94DB028AEF91E00E94A20242E00E94D2
:100BB0002C038EE291E00E94DB0288E491E00E9427
:100BC000DB028AE491E00E94DB0268EE73E080E0E1
:100BD00090E00E940801209771F20E94A4018823EE
:100BE00051F20E940000C7CF5058BB27AA270E948D
:100BF0000C060C947F070E94710738F00E9478075A
:100C000020F039F49F3F19F426F40C946E070EF48B
:100C1000E095E7FB0C946807E92F0E94900758F3D2
:100C2000BA17620773078407950720F079F4A6F5D1
:100C30000C94B2070EF4E0950B2EBA2FA02D0B01E9
:100C4000B90190010C01CA01A0011124FF27591B11
:100C500099F0593F50F4503E68F11A16F040A22F17
:100C6000232F342F4427585FF3CF46953795279588
:100C7000A795F0405395C9F77EF41F16BA0B620B87
:100C8000730B840BBAF09150A1F0FF0FBB1F661FCE
:100C9000771F881FC2F70EC0BA0F621F731F841F11
:100CA00048F4879577956795B795F7959E3F08F037
:100CB000B0CF9395880F08F09927EE0F97958795F9
:100CC00008950E94440708F481E008950E947A067E
:100CD0000C947F070E94780758F00E94710740F03B
:100CE00029F45F3F29F00C94680751110C94B30765
:100CF0000C946E070E94900768F39923B1F3552373
:100D000091F3951B550BBB27AA276217730784071E
:100D100038F09F5F5F4F220F331F441FAA1FA9F3B4
:100D200035D00E2E3AF0E0E832D091505040E695A2
:100D3000001CCAF72BD0FE2F29D0660F771F881F03
:100D4000BB1F261737074807AB07B0E809F0BB0BF6
:100D5000802DBF01FF2793585F4F3AF09E3F51050A
:100D600078F00C9468070C94B3075F3FE4F3983E67
:100D7000D4F3869577956795B795F7959F5FC9F7F3
:100D8000880F911D9695879597F90895E1E0660F74
:100D9000771F881FBB1F621773078407BA0720F0ED
:100DA000621B730B840BBA0BEE1F88F7E095089556
:100DB0000E94980788F09F5798F0B92F9927B7514C
:100DC000B0F0E1F0660F771F881F991F1AF0BA95EF
:100DD000C9F714C0B13091F00E94B207B1E0089594
:100DE0000C94B207672F782F8827B85F39F0B93F86
:100DF000CCF3869577956795B395D9F73EF49095A2
:100E00008095709561957F4F8F4F9F4F0895E8941F
:100E100009C097FB3EF490958095709561957F4F42
:100E20008F4F9F4F9923A9F0F92F96E9BB279395F0
:100E3000F695879577956795B795F111F8CFFAF400
:100E4000BB0F11F460FF1BC06F5F7F4F8F4F9F4F31
:100E500016C0882311F096E911C0772321F09EE88F
:100E6000872F762F05C0662371F096E8862F70E0F5
:100E700060E02AF09A95660F771F881FDAF7880FCF
:100E80009695879597F90895990F0008550FAA0B25
:100E9000E0E8FEEF16161706E807F907C0F012168D
:100EA0001306E407F50798F0621B730B840B950B90
:100EB00039F40A2661F0232B242B252B21F40895E5
:100EC0000A2609F4A140A6958FEF811D811D089582
:100ED00097F99F6780E870E060E008959FEF80ECED
:100EE000089500240A941616170618060906089590
:100EF00000240A9412161306140605060895092EF6
:100F00000394000C11F4882352F0BB0F40F4BF2B64
:100F100011F460FF04C06F5F7F4F8F4F9F4F0895A4
:100F200057FD9058440F551F59F05F3F71F047959A
:100F3000880F97FB991F61F09F3F79F0879508957F
:100F4000121613061406551FF2CF4695F1DF08C09E
:100F5000161617061806991FF1CF869571056105BB
:100F600008940895E894BB2766277727CB0197F963
:100F700008950E94440708F48FEF08950E94D10756
:100F80000C947F070E94710738F00E94780720F0C8
:100F9000952311F00C9468070C946E0711240C949F
:100FA000B3070E94900770F3959FC1F3950F50E02F
:100FB000551F629FF001729FBB27F00DB11D639F0B
:100FC000AA27F00DB11DAA1F649F6627B00DA11DB1
:100FD000661F829F2227B00DA11D621F739FB00D57
:100FE000A11D621F839FA00D611D221F749F3327C7
:100FF000A00D611D231F849F600D211D822F762F60
:101000006A2F11249F5750409AF0F1F088234AF03C
:10101000EE0FFF1FBB1F661F771F881F91505040A8
:10102000A9F79E3F510580F00C9468070C94B30714
:101030005F3FE4F3983ED4F3869577956795B7952F
:10104000F795E7959F5FC1F7FE2B880F911D969549
:10105000879597F908950E944407880B990B089586
:10106000A1E21A2EAA1BBB1BFD010DC0AA1FBB1FAC
:10107000EE1FFF1FA217B307E407F50720F0A21B1E
:10108000B30BE40BF50B661F771F881F991F1A948B
:1010900069F760957095809590959B01AC01BD01B5
:1010A000CF010895EE0FFF1F0590F491E02D0994F4
:0410B000F894FFCFE2
:1010B40000000000DA013A01670127029801760175
:1010C4008A016E616E00696E66006F766600546513
:1010D4006D706572617475726520313A2000C2B01A
:1010E400004320207C20200054656D70657261747B
:0E10F40075726520323A200043000D0A00009C
:00000001FF
